{
  "abi": [
    {
      "inputs": [],
      "stateMutability": "nonpayable",
      "type": "constructor"
    },
    {
      "inputs": [],
      "name": "NonExistentTokenUri",
      "type": "error"
    },
    {
      "anonymous": false,
      "inputs": [
        {
          "indexed": true,
          "internalType": "address",
          "name": "owner",
          "type": "address"
        },
        {
          "indexed": true,
          "internalType": "address",
          "name": "spender",
          "type": "address"
        },
        {
          "indexed": true,
          "internalType": "uint256",
          "name": "id",
          "type": "uint256"
        }
      ],
      "name": "Approval",
      "type": "event"
    },
    {
      "anonymous": false,
      "inputs": [
        {
          "indexed": true,
          "internalType": "address",
          "name": "owner",
          "type": "address"
        },
        {
          "indexed": true,
          "internalType": "address",
          "name": "operator",
          "type": "address"
        },
        {
          "indexed": false,
          "internalType": "bool",
          "name": "approved",
          "type": "bool"
        }
      ],
      "name": "ApprovalForAll",
      "type": "event"
    },
    {
      "anonymous": false,
      "inputs": [
        {
          "indexed": true,
          "internalType": "address",
          "name": "from",
          "type": "address"
        },
        {
          "indexed": true,
          "internalType": "address",
          "name": "to",
          "type": "address"
        },
        {
          "indexed": true,
          "internalType": "uint256",
          "name": "id",
          "type": "uint256"
        }
      ],
      "name": "Transfer",
      "type": "event"
    },
    {
      "inputs": [
        {
          "internalType": "address",
          "name": "spender",
          "type": "address"
        },
        {
          "internalType": "uint256",
          "name": "id",
          "type": "uint256"
        }
      ],
      "name": "approve",
      "outputs": [],
      "stateMutability": "nonpayable",
      "type": "function"
    },
    {
      "inputs": [
        {
          "internalType": "address",
          "name": "owner",
          "type": "address"
        }
      ],
      "name": "balanceOf",
      "outputs": [
        {
          "internalType": "uint256",
          "name": "",
          "type": "uint256"
        }
      ],
      "stateMutability": "view",
      "type": "function"
    },
    {
      "inputs": [
        {
          "internalType": "uint256",
          "name": "",
          "type": "uint256"
        }
      ],
      "name": "getApproved",
      "outputs": [
        {
          "internalType": "address",
          "name": "",
          "type": "address"
        }
      ],
      "stateMutability": "view",
      "type": "function"
    },
    {
      "inputs": [
        {
          "internalType": "address",
          "name": "",
          "type": "address"
        },
        {
          "internalType": "address",
          "name": "",
          "type": "address"
        }
      ],
      "name": "isApprovedForAll",
      "outputs": [
        {
          "internalType": "bool",
          "name": "",
          "type": "bool"
        }
      ],
      "stateMutability": "view",
      "type": "function"
    },
    {
      "inputs": [
        {
          "internalType": "address",
          "name": "to",
          "type": "address"
        },
        {
          "internalType": "uint256",
          "name": "tokenId",
          "type": "uint256"
        }
      ],
      "name": "mint",
      "outputs": [],
      "stateMutability": "nonpayable",
      "type": "function"
    },
    {
      "inputs": [],
      "name": "name",
      "outputs": [
        {
          "internalType": "string",
          "name": "",
          "type": "string"
        }
      ],
      "stateMutability": "view",
      "type": "function"
    },
    {
      "inputs": [
        {
          "internalType": "uint256",
          "name": "id",
          "type": "uint256"
        }
      ],
      "name": "ownerOf",
      "outputs": [
        {
          "internalType": "address",
          "name": "owner",
          "type": "address"
        }
      ],
      "stateMutability": "view",
      "type": "function"
    },
    {
      "inputs": [
        {
          "internalType": "address",
          "name": "from",
          "type": "address"
        },
        {
          "internalType": "address",
          "name": "to",
          "type": "address"
        },
        {
          "internalType": "uint256",
          "name": "id",
          "type": "uint256"
        }
      ],
      "name": "safeTransferFrom",
      "outputs": [],
      "stateMutability": "nonpayable",
      "type": "function"
    },
    {
      "inputs": [
        {
          "internalType": "address",
          "name": "from",
          "type": "address"
        },
        {
          "internalType": "address",
          "name": "to",
          "type": "address"
        },
        {
          "internalType": "uint256",
          "name": "id",
          "type": "uint256"
        },
        {
          "internalType": "bytes",
          "name": "data",
          "type": "bytes"
        }
      ],
      "name": "safeTransferFrom",
      "outputs": [],
      "stateMutability": "nonpayable",
      "type": "function"
    },
    {
      "inputs": [
        {
          "internalType": "address",
          "name": "operator",
          "type": "address"
        },
        {
          "internalType": "bool",
          "name": "approved",
          "type": "bool"
        }
      ],
      "name": "setApprovalForAll",
      "outputs": [],
      "stateMutability": "nonpayable",
      "type": "function"
    },
    {
      "inputs": [
        {
          "internalType": "bytes4",
          "name": "interfaceId",
          "type": "bytes4"
        }
      ],
      "name": "supportsInterface",
      "outputs": [
        {
          "internalType": "bool",
          "name": "",
          "type": "bool"
        }
      ],
      "stateMutability": "view",
      "type": "function"
    },
    {
      "inputs": [],
      "name": "symbol",
      "outputs": [
        {
          "internalType": "string",
          "name": "",
          "type": "string"
        }
      ],
      "stateMutability": "view",
      "type": "function"
    },
    {
      "inputs": [
        {
          "internalType": "uint256",
          "name": "tokenId",
          "type": "uint256"
        }
      ],
      "name": "tokenURI",
      "outputs": [
        {
          "internalType": "string",
          "name": "",
          "type": "string"
        }
      ],
      "stateMutability": "view",
      "type": "function"
    },
    {
      "inputs": [
        {
          "internalType": "address",
          "name": "from",
          "type": "address"
        },
        {
          "internalType": "address",
          "name": "to",
          "type": "address"
        },
        {
          "internalType": "uint256",
          "name": "id",
          "type": "uint256"
        }
      ],
      "name": "transferFrom",
      "outputs": [],
      "stateMutability": "nonpayable",
      "type": "function"
    }
  ],
  "bytecode": {
    "object": "0x60803462000320576001600160401b0390604090808201838111828210176200030a578252601981526020927f446f6d696e6174696f6e20426173696320436861636174657200000000000000848301528251838101818110838211176200030a578452600381526244424360e81b858201528251908282116200030a5760008054926001958685811c95168015620002ff575b89861014620002eb578190601f9586811162000298575b5089908683116001146200023457849262000228575b5050600019600383901b1c191690861b1781555b8151938411620002145784548581811c9116801562000209575b88821014620001f557838111620001ad575b508692841160011462000147578394959650926200013b575b5050600019600383901b1c191690821b1790555b51610e7a9081620003268239f35b01519050388062000119565b9190601f1984169685845280842093905b8882106200019557505083859697106200017b575b505050811b0190556200012d565b015160001960f88460031b161c191690553880806200016d565b80878596829496860151815501950193019062000158565b8582528782208480870160051c8201928a8810620001eb575b0160051c019086905b828110620001df57505062000100565b838155018690620001cf565b92508192620001c6565b634e487b7160e01b82526022600452602482fd5b90607f1690620000ee565b634e487b7160e01b81526041600452602490fd5b015190503880620000c0565b8480528a85208994509190601f198416865b8d82821062000281575050841162000267575b505050811b018155620000d4565b015160001960f88460031b161c1916905538808062000259565b8385015186558c9790950194938401930162000246565b9091508380528984208680850160051c8201928c8610620002e1575b918a91869594930160051c01915b828110620002d2575050620000aa565b8681558594508a9101620002c2565b92508192620002b4565b634e487b7160e01b83526022600452602483fd5b94607f169462000093565b634e487b7160e01b600052604160045260246000fd5b600080fdfe608060408181526004918236101561001657600080fd5b600092833560e01c91826301ffc9a714610a3d5750816306fdde0314610995578163081812fc14610963578163095ea7b3146108b257816323b872dd1461089957816340c10f19146107c557816342842e0e146107095781636352211e146106d557816370a082311461066257816395d89b4114610591578163a22cb46514610511578163b88d4fde146103c6578163c87b56dd1461010f575063e985e9c5146100bf57600080fd5b3461010b578060031936011261010b5760ff816020936100dd610b69565b6100e5610b84565b6001600160a01b0391821683526005875283832091168252855220549151911615158152f35b5080fd5b9050346103c2576020806003193601126103be578135916001600160a01b0361013784610bcf565b16156103b0576006549261014a84610aa8565b15610371578092600192827a184f03e93ff9f4daa797ed6e38ed64bf6a1f0100000000000000009081811015610363575b50506d04ee2d6d415b85acef810000000080841015610355575b50662386f26fc1000080841015610346575b506305f5e10080841015610337575b5061271080841015610329575b50506064821015610319575b600a8092101561030f575b6101e383610e28565b916101f087519384610ae2565b8383526101fc84610e28565b94818380860196601f198099013689378601015b60001901916f181899199a1a9b1b9c1cb0b131b232b360811b8282061a83530490811561023e578290610210565b5050508551948761024e82610aa8565b91600181169081156102f2575060011461029b575b505050856102979661027e61028b9594879451938491610b1a565b0103908101835282610ae2565b905b5191829182610b3d565b0390f35b90919750600681527ff652222313e28459528d920b65115c16c04f3efc82aaedc97be59f3f377c0d3f5b8282106102de575050840190950194818161027e610263565b80548783018a0152908801906001016102c5565b60ff1916888501525050801515028501019550818161027e610263565b91600101916101da565b91906064600291049101916101cf565b9301929091049038806101c3565b600891949304920192386101b6565b601091949304920192386101a7565b829194930492019238610195565b60419550049250388061017b565b5093909150825191820182811067ffffffffffffffff82111761039d576102979450835281529061028d565b634e487b7160e01b825260418552602482fd5b835163c864c75960e01b8152fd5b8380fd5b8280fd5b9050346103c25760803660031901126103c2576103e1610b69565b6103e9610b84565b6044359267ffffffffffffffff9160643583811161050d573660238201121561050d578083013593841161050d57366024858301011161050d5761042e868387610c9f565b87823b15958615610448575b508761044587610de9565b51f35b602494965060a486986020978b519a8b9889978894630a85bd0160e11b9d8e8752339087015260018060a01b038098168387015260448601526080606486015282608486015201848401378181018301859052601f01601f19168101030193165af18015610500576104459285916104d2575b506001600160e01b0319161438808080878161043a565b6104f3915060203d81116104f9575b6104eb8183610ae2565b810190610dc9565b386104bb565b503d6104e1565b50505051903d90823e3d90fd5b8780fd5b50503461010b578060031936011261010b5761052b610b69565b6024358015158091036103be5733845260056020528284209160018060a01b03169182855260205282842060ff1981541660ff831617905582519081527f17307eab39ab6107e8899845ad3d59bd9653f200f220920489ca2b5937696c3160203392a351f35b50503461010b578160031936011261010b578051908260018054916105b583610aa8565b8086529282811690811561063a57506001146105de575b50505061028d82610297940383610ae2565b94508085527fb10e2d527612073b26eecdfd717e6a320cf44b4afac2b0732d9fcbe2b7fa0cf65b8286106106225750505061028d82602061029795820101946105cc565b80546020878701810191909152909501948101610605565b61029797508693506020925061028d94915060ff191682840152151560051b820101946105cc565b8391503461010b57602036600319011261010b576001600160a01b03610686610b69565b169081156106a35760208480858581526003845220549051908152f35b606490602085519162461bcd60e51b8352820152600c60248201526b5a45524f5f4144445245535360a01b6044820152fd5b82843461070657602036600319011261070657506106f560209235610bcf565b90516001600160a01b039091168152f35b80fd5b9050346103c25761071936610b9a565b919290610727838286610c9f565b803b1592831561073d575b868661044586610de9565b602092935060a4908787519687948593630a85bd0160e11b98898652339086015260018060a01b038093166024860152604485015260806064850152826084850152165af18015610500576104459285916107a7575b506001600160e01b03191614388080610732565b6107bf915060203d81116104f9576104eb8183610ae2565b38610793565b9050346103c257816003193601126103c2576107df610b69565b6001600160a01b03908116926024359290916107fc851515610c5f565b8386526002602052828620541661086657508284526003602052808420600181540190558184526002602052808420836001600160601b0360a01b8254161790555191837fddf252ad1be2c89b69c2b068fc378daa952ba7f163c4a11628f55a4df523b3ef8185a4f35b6020606492519162461bcd60e51b8352820152600e60248201526d1053149150511657d3525395115160921b6044820152fd5b50503461010b576104456108ac36610b9a565b91610c9f565b919050346103c257806003193601126103c2576108cd610b69565b6024358085526002602052828520546001600160a01b03908116949193913386148015610944575b6108fe90610c22565b848752602052818620921691826001600160601b0360a01b82541617905551927f8c5be1e5ebec7d5bd14f71427d1e84f3dd0314c0f7b2291e5b200ac8c7c3b9258585a4f35b508587526005602090815283882033895290528287205460ff166108f5565b9050346103c25760203660031901126103c257803583526020908152918190205490516001600160a01b039091168152f35b50503461010b578160031936011261010b578051908280546109b681610aa8565b8085529160019180831690811561063a57506001146109e15750505061028d82610297940383610ae2565b80809650527f290decd9548b62a8d60345a988386fc84ba6bc95484008f6362f93160ef3e5635b828610610a255750505061028d82602061029795820101946105cc565b80546020878701810191909152909501948101610a08565b8491346103c25760203660031901126103c2573563ffffffff60e01b81168091036103c257602092506301ffc9a760e01b8114908115610a97575b8115610a86575b5015158152f35b635b5e139f60e01b14905083610a7f565b6380ac58cd60e01b81149150610a78565b90600182811c92168015610ad8575b6020831014610ac257565b634e487b7160e01b600052602260045260246000fd5b91607f1691610ab7565b90601f8019910116810190811067ffffffffffffffff821117610b0457604052565b634e487b7160e01b600052604160045260246000fd5b60005b838110610b2d5750506000910152565b8181015183820152602001610b1d565b60409160208252610b5d8151809281602086015260208686019101610b1a565b601f01601f1916010190565b600435906001600160a01b0382168203610b7f57565b600080fd5b602435906001600160a01b0382168203610b7f57565b6060906003190112610b7f576001600160a01b03906004358281168103610b7f57916024359081168103610b7f579060443590565b6000908152600260205260409020546001600160a01b0316908115610bf057565b60405162461bcd60e51b815260206004820152600a6024820152691393d517d3525395115160b21b6044820152606490fd5b15610c2957565b60405162461bcd60e51b815260206004820152600e60248201526d1393d517d055551213d49256915160921b6044820152606490fd5b15610c6657565b60405162461bcd60e51b81526020600482015260116024820152701253959053125117d49150d25412515395607a1b6044820152606490fd5b6000838152600260209081526040808320546001600160a01b0395948616949192919086168503610d995790610d18867fddf252ad1be2c89b69c2b068fc378daa952ba7f163c4a11628f55a4df523b3ef9594931696610d00881515610c5f565b863314908115610d7c575b8115610d66575b50610c22565b84835260038152818320600019815401905585835281832060018154019055868352600281526004828420916001600160601b0360a01b9288848254161790555281832090815416905551a4565b9050888552600483528385205416331438610d12565b8786526005845284862033875284528486205460ff169150610d0b565b50606491519062461bcd60e51b82526004820152600a60248201526957524f4e475f46524f4d60b01b6044820152fd5b90816020910312610b7f57516001600160e01b031981168103610b7f5790565b15610df057565b60405162461bcd60e51b815260206004820152601060248201526f155394d0519157d49150d2541251539560821b6044820152606490fd5b67ffffffffffffffff8111610b0457601f01601f19166020019056fea26469706673582212203749be97c6391b0b06f8c455543f3cae76c5ceba016e21165e15b4b05a53ba0864736f6c63430008100033",
    "linkReferences": {}
  },
  "methodIdentifiers": {
    "approve(address,uint256)": "095ea7b3",
    "balanceOf(address)": "70a08231",
    "getApproved(uint256)": "081812fc",
    "isApprovedForAll(address,address)": "e985e9c5",
    "mint(address,uint256)": "40c10f19",
    "name()": "06fdde03",
    "ownerOf(uint256)": "6352211e",
    "safeTransferFrom(address,address,uint256)": "42842e0e",
    "safeTransferFrom(address,address,uint256,bytes)": "b88d4fde",
    "setApprovalForAll(address,bool)": "a22cb465",
    "supportsInterface(bytes4)": "01ffc9a7",
    "symbol()": "95d89b41",
    "tokenURI(uint256)": "c87b56dd",
    "transferFrom(address,address,uint256)": "23b872dd"
  },
  "id": 19
}