{
  "abi": [
    {
      "inputs": [
        {
          "internalType": "address",
          "name": "_vrfCoordinator",
          "type": "address"
        },
        {
          "internalType": "address",
          "name": "_linkToken",
          "type": "address"
        },
        {
          "internalType": "uint64",
          "name": "_subscriptionId",
          "type": "uint64"
        },
        {
          "internalType": "bytes32",
          "name": "_keyHash",
          "type": "bytes32"
        }
      ],
      "stateMutability": "payable",
      "type": "constructor"
    },
    {
      "inputs": [],
      "name": "LoserTriedWithdraw",
      "type": "error"
    },
    {
      "inputs": [
        {
          "internalType": "address",
          "name": "have",
          "type": "address"
        },
        {
          "internalType": "address",
          "name": "want",
          "type": "address"
        }
      ],
      "name": "OnlyCoordinatorCanFulfill",
      "type": "error"
    },
    {
      "inputs": [],
      "name": "OnlyWinningAllianceMember",
      "type": "error"
    },
    {
      "anonymous": false,
      "inputs": [
        {
          "indexed": true,
          "internalType": "address",
          "name": "admin",
          "type": "address"
        },
        {
          "indexed": true,
          "internalType": "uint256",
          "name": "allianceId",
          "type": "uint256"
        },
        {
          "indexed": false,
          "internalType": "string",
          "name": "name",
          "type": "string"
        }
      ],
      "name": "AllianceCreated",
      "type": "event"
    },
    {
      "anonymous": false,
      "inputs": [
        {
          "indexed": true,
          "internalType": "uint256",
          "name": "allianceId",
          "type": "uint256"
        },
        {
          "indexed": true,
          "internalType": "address",
          "name": "player",
          "type": "address"
        }
      ],
      "name": "AllianceMemberJoined",
      "type": "event"
    },
    {
      "anonymous": false,
      "inputs": [
        {
          "indexed": true,
          "internalType": "uint256",
          "name": "allianceId",
          "type": "uint256"
        },
        {
          "indexed": true,
          "internalType": "address",
          "name": "player",
          "type": "address"
        }
      ],
      "name": "AllianceMemberLeft",
      "type": "event"
    },
    {
      "anonymous": false,
      "inputs": [
        {
          "indexed": true,
          "internalType": "address",
          "name": "who",
          "type": "address"
        },
        {
          "indexed": false,
          "internalType": "uint256",
          "name": "x",
          "type": "uint256"
        },
        {
          "indexed": false,
          "internalType": "uint256",
          "name": "y",
          "type": "uint256"
        }
      ],
      "name": "AttemptJailBreak",
      "type": "event"
    },
    {
      "anonymous": false,
      "inputs": [
        {
          "indexed": true,
          "internalType": "uint256",
          "name": "turn",
          "type": "uint256"
        },
        {
          "indexed": true,
          "internalType": "address",
          "name": "player",
          "type": "address"
        },
        {
          "indexed": false,
          "internalType": "bytes",
          "name": "details",
          "type": "bytes"
        }
      ],
      "name": "BadMovePenalty",
      "type": "event"
    },
    {
      "anonymous": false,
      "inputs": [
        {
          "indexed": true,
          "internalType": "address",
          "name": "player1",
          "type": "address"
        },
        {
          "indexed": true,
          "internalType": "address",
          "name": "defender",
          "type": "address"
        }
      ],
      "name": "BattleCommenced",
      "type": "event"
    },
    {
      "anonymous": false,
      "inputs": [
        {
          "indexed": true,
          "internalType": "address",
          "name": "winner",
          "type": "address"
        },
        {
          "indexed": true,
          "internalType": "uint256",
          "name": "spoils",
          "type": "uint256"
        }
      ],
      "name": "BattleFinished",
      "type": "event"
    },
    {
      "anonymous": false,
      "inputs": [
        {
          "indexed": false,
          "internalType": "address",
          "name": "owner",
          "type": "address"
        },
        {
          "indexed": false,
          "internalType": "uint64",
          "name": "subscriptionId",
          "type": "uint64"
        }
      ],
      "name": "Constructed",
      "type": "event"
    },
    {
      "anonymous": false,
      "inputs": [
        {
          "indexed": true,
          "internalType": "address",
          "name": "by",
          "type": "address"
        },
        {
          "indexed": true,
          "internalType": "address",
          "name": "to",
          "type": "address"
        },
        {
          "indexed": true,
          "internalType": "uint256",
          "name": "amount",
          "type": "uint256"
        }
      ],
      "name": "DamageDealt",
      "type": "event"
    },
    {
      "anonymous": false,
      "inputs": [
        {
          "indexed": true,
          "internalType": "address",
          "name": "who",
          "type": "address"
        },
        {
          "indexed": true,
          "internalType": "uint256",
          "name": "inmatesCount",
          "type": "uint256"
        }
      ],
      "name": "Jail",
      "type": "event"
    },
    {
      "anonymous": false,
      "inputs": [
        {
          "indexed": true,
          "internalType": "address",
          "name": "who",
          "type": "address"
        }
      ],
      "name": "JailBreak",
      "type": "event"
    },
    {
      "anonymous": false,
      "inputs": [
        {
          "indexed": true,
          "internalType": "address",
          "name": "addr",
          "type": "address"
        }
      ],
      "name": "Joined",
      "type": "event"
    },
    {
      "anonymous": false,
      "inputs": [
        {
          "indexed": true,
          "internalType": "address",
          "name": "who",
          "type": "address"
        },
        {
          "indexed": false,
          "internalType": "uint256",
          "name": "newX",
          "type": "uint256"
        },
        {
          "indexed": false,
          "internalType": "uint256",
          "name": "newY",
          "type": "uint256"
        }
      ],
      "name": "Move",
      "type": "event"
    },
    {
      "anonymous": false,
      "inputs": [
        {
          "indexed": true,
          "internalType": "address",
          "name": "who",
          "type": "address"
        },
        {
          "indexed": true,
          "internalType": "address",
          "name": "nftAddress",
          "type": "address"
        },
        {
          "indexed": true,
          "internalType": "uint256",
          "name": "tokenId",
          "type": "uint256"
        }
      ],
      "name": "NftConfiscated",
      "type": "event"
    },
    {
      "anonymous": false,
      "inputs": [
        {
          "indexed": false,
          "internalType": "uint256[]",
          "name": "randomWords",
          "type": "uint256[]"
        }
      ],
      "name": "ReturnedRandomness",
      "type": "event"
    },
    {
      "anonymous": false,
      "inputs": [
        {
          "indexed": true,
          "internalType": "address",
          "name": "addr",
          "type": "address"
        },
        {
          "indexed": true,
          "internalType": "uint256",
          "name": "turn",
          "type": "uint256"
        },
        {
          "indexed": false,
          "internalType": "bytes32",
          "name": "nonce",
          "type": "bytes32"
        },
        {
          "indexed": false,
          "internalType": "bytes",
          "name": "data",
          "type": "bytes"
        }
      ],
      "name": "Revealed",
      "type": "event"
    },
    {
      "anonymous": false,
      "inputs": [
        {
          "indexed": true,
          "internalType": "address",
          "name": "addr",
          "type": "address"
        },
        {
          "indexed": true,
          "internalType": "uint256",
          "name": "turn",
          "type": "uint256"
        },
        {
          "indexed": false,
          "internalType": "bytes32",
          "name": "commitment",
          "type": "bytes32"
        }
      ],
      "name": "Submitted",
      "type": "event"
    },
    {
      "anonymous": false,
      "inputs": [
        {
          "indexed": true,
          "internalType": "uint256",
          "name": "turn",
          "type": "uint256"
        },
        {
          "indexed": false,
          "internalType": "uint256",
          "name": "timestamp",
          "type": "uint256"
        }
      ],
      "name": "TurnStarted",
      "type": "event"
    },
    {
      "anonymous": false,
      "inputs": [
        {
          "indexed": true,
          "internalType": "uint256",
          "name": "allianceId",
          "type": "uint256"
        }
      ],
      "name": "WinnerAlliance",
      "type": "event"
    },
    {
      "anonymous": false,
      "inputs": [
        {
          "indexed": true,
          "internalType": "address",
          "name": "winner",
          "type": "address"
        }
      ],
      "name": "WinnerPlayer",
      "type": "event"
    },
    {
      "anonymous": false,
      "inputs": [
        {
          "indexed": true,
          "internalType": "address",
          "name": "winner",
          "type": "address"
        },
        {
          "indexed": true,
          "internalType": "uint256",
          "name": "spoils",
          "type": "uint256"
        }
      ],
      "name": "WinnerWithdrawSpoils",
      "type": "event"
    },
    {
      "inputs": [],
      "name": "activeAlliances",
      "outputs": [
        {
          "internalType": "uint256",
          "name": "",
          "type": "uint256"
        }
      ],
      "stateMutability": "view",
      "type": "function"
    },
    {
      "inputs": [],
      "name": "activePlayersCount",
      "outputs": [
        {
          "internalType": "uint256",
          "name": "",
          "type": "uint256"
        }
      ],
      "stateMutability": "view",
      "type": "function"
    },
    {
      "inputs": [
        {
          "internalType": "uint256",
          "name": "",
          "type": "uint256"
        }
      ],
      "name": "allianceAdmins",
      "outputs": [
        {
          "internalType": "address",
          "name": "",
          "type": "address"
        }
      ],
      "stateMutability": "view",
      "type": "function"
    },
    {
      "inputs": [
        {
          "internalType": "uint256",
          "name": "",
          "type": "uint256"
        },
        {
          "internalType": "uint256",
          "name": "",
          "type": "uint256"
        }
      ],
      "name": "allianceMembers",
      "outputs": [
        {
          "internalType": "address",
          "name": "",
          "type": "address"
        }
      ],
      "stateMutability": "view",
      "type": "function"
    },
    {
      "inputs": [
        {
          "internalType": "uint256",
          "name": "",
          "type": "uint256"
        }
      ],
      "name": "alliances",
      "outputs": [
        {
          "internalType": "address",
          "name": "admin",
          "type": "address"
        },
        {
          "internalType": "uint256",
          "name": "id",
          "type": "uint256"
        },
        {
          "internalType": "uint256",
          "name": "membersCount",
          "type": "uint256"
        },
        {
          "internalType": "uint256",
          "name": "maxMembers",
          "type": "uint256"
        },
        {
          "internalType": "uint256",
          "name": "totalBalance",
          "type": "uint256"
        },
        {
          "internalType": "string",
          "name": "name",
          "type": "string"
        }
      ],
      "stateMutability": "view",
      "type": "function"
    },
    {
      "inputs": [
        {
          "internalType": "uint256",
          "name": "tokenId",
          "type": "uint256"
        },
        {
          "internalType": "address",
          "name": "byoNft",
          "type": "address"
        }
      ],
      "name": "connect",
      "outputs": [],
      "stateMutability": "payable",
      "type": "function"
    },
    {
      "inputs": [
        {
          "internalType": "address",
          "name": "player",
          "type": "address"
        },
        {
          "internalType": "uint256",
          "name": "maxMembers",
          "type": "uint256"
        },
        {
          "internalType": "string",
          "name": "name",
          "type": "string"
        }
      ],
      "name": "createAlliance",
      "outputs": [],
      "stateMutability": "nonpayable",
      "type": "function"
    },
    {
      "inputs": [],
      "name": "currentTurn",
      "outputs": [
        {
          "internalType": "uint256",
          "name": "",
          "type": "uint256"
        }
      ],
      "stateMutability": "view",
      "type": "function"
    },
    {
      "inputs": [],
      "name": "currentTurnStartTimestamp",
      "outputs": [
        {
          "internalType": "uint256",
          "name": "",
          "type": "uint256"
        }
      ],
      "stateMutability": "view",
      "type": "function"
    },
    {
      "inputs": [],
      "name": "fieldSize",
      "outputs": [
        {
          "internalType": "uint256",
          "name": "",
          "type": "uint256"
        }
      ],
      "stateMutability": "view",
      "type": "function"
    },
    {
      "inputs": [],
      "name": "init",
      "outputs": [],
      "stateMutability": "nonpayable",
      "type": "function"
    },
    {
      "inputs": [
        {
          "internalType": "uint256",
          "name": "",
          "type": "uint256"
        }
      ],
      "name": "inmates",
      "outputs": [
        {
          "internalType": "address",
          "name": "",
          "type": "address"
        }
      ],
      "stateMutability": "view",
      "type": "function"
    },
    {
      "inputs": [],
      "name": "jailCell",
      "outputs": [
        {
          "internalType": "uint256",
          "name": "x",
          "type": "uint256"
        },
        {
          "internalType": "uint256",
          "name": "y",
          "type": "uint256"
        }
      ],
      "stateMutability": "view",
      "type": "function"
    },
    {
      "inputs": [
        {
          "internalType": "address",
          "name": "player",
          "type": "address"
        },
        {
          "internalType": "uint256",
          "name": "allianceId",
          "type": "uint256"
        },
        {
          "internalType": "uint8",
          "name": "v",
          "type": "uint8"
        },
        {
          "internalType": "bytes32",
          "name": "r",
          "type": "bytes32"
        },
        {
          "internalType": "bytes32",
          "name": "s",
          "type": "bytes32"
        }
      ],
      "name": "joinAlliance",
      "outputs": [],
      "stateMutability": "nonpayable",
      "type": "function"
    },
    {
      "inputs": [
        {
          "internalType": "address",
          "name": "player",
          "type": "address"
        }
      ],
      "name": "leaveAlliance",
      "outputs": [],
      "stateMutability": "nonpayable",
      "type": "function"
    },
    {
      "inputs": [],
      "name": "maxPlayers",
      "outputs": [
        {
          "internalType": "uint256",
          "name": "",
          "type": "uint256"
        }
      ],
      "stateMutability": "view",
      "type": "function"
    },
    {
      "inputs": [
        {
          "internalType": "address",
          "name": "player",
          "type": "address"
        },
        {
          "internalType": "int8",
          "name": "direction",
          "type": "int8"
        }
      ],
      "name": "move",
      "outputs": [],
      "stateMutability": "nonpayable",
      "type": "function"
    },
    {
      "inputs": [],
      "name": "nextAvailableCol",
      "outputs": [
        {
          "internalType": "uint256",
          "name": "",
          "type": "uint256"
        }
      ],
      "stateMutability": "view",
      "type": "function"
    },
    {
      "inputs": [],
      "name": "nextAvailableRow",
      "outputs": [
        {
          "internalType": "uint256",
          "name": "",
          "type": "uint256"
        }
      ],
      "stateMutability": "view",
      "type": "function"
    },
    {
      "inputs": [
        {
          "internalType": "address",
          "name": "",
          "type": "address"
        },
        {
          "internalType": "address",
          "name": "",
          "type": "address"
        },
        {
          "internalType": "uint256",
          "name": "",
          "type": "uint256"
        },
        {
          "internalType": "bytes",
          "name": "",
          "type": "bytes"
        }
      ],
      "name": "onERC721Received",
      "outputs": [
        {
          "internalType": "bytes4",
          "name": "",
          "type": "bytes4"
        }
      ],
      "stateMutability": "pure",
      "type": "function"
    },
    {
      "inputs": [
        {
          "internalType": "address",
          "name": "",
          "type": "address"
        }
      ],
      "name": "players",
      "outputs": [
        {
          "internalType": "address",
          "name": "addr",
          "type": "address"
        },
        {
          "internalType": "address",
          "name": "nftAddress",
          "type": "address"
        },
        {
          "internalType": "uint256",
          "name": "tokenId",
          "type": "uint256"
        },
        {
          "internalType": "uint256",
          "name": "balance",
          "type": "uint256"
        },
        {
          "internalType": "uint256",
          "name": "lastMoveTimestamp",
          "type": "uint256"
        },
        {
          "internalType": "uint256",
          "name": "allianceId",
          "type": "uint256"
        },
        {
          "internalType": "uint256",
          "name": "hp",
          "type": "uint256"
        },
        {
          "internalType": "uint256",
          "name": "attack",
          "type": "uint256"
        },
        {
          "internalType": "uint256",
          "name": "x",
          "type": "uint256"
        },
        {
          "internalType": "uint256",
          "name": "y",
          "type": "uint256"
        },
        {
          "internalType": "bytes32",
          "name": "pendingMoveCommitment",
          "type": "bytes32"
        },
        {
          "internalType": "bytes",
          "name": "pendingMove",
          "type": "bytes"
        },
        {
          "internalType": "bool",
          "name": "inJail",
          "type": "bool"
        }
      ],
      "stateMutability": "view",
      "type": "function"
    },
    {
      "inputs": [
        {
          "internalType": "uint256",
          "name": "",
          "type": "uint256"
        },
        {
          "internalType": "uint256",
          "name": "",
          "type": "uint256"
        }
      ],
      "name": "playingField",
      "outputs": [
        {
          "internalType": "address",
          "name": "",
          "type": "address"
        }
      ],
      "stateMutability": "view",
      "type": "function"
    },
    {
      "inputs": [],
      "name": "randomness",
      "outputs": [
        {
          "internalType": "uint256",
          "name": "",
          "type": "uint256"
        }
      ],
      "stateMutability": "view",
      "type": "function"
    },
    {
      "inputs": [
        {
          "internalType": "uint256",
          "name": "requestId",
          "type": "uint256"
        },
        {
          "internalType": "uint256[]",
          "name": "randomWords",
          "type": "uint256[]"
        }
      ],
      "name": "rawFulfillRandomWords",
      "outputs": [],
      "stateMutability": "nonpayable",
      "type": "function"
    },
    {
      "inputs": [],
      "name": "requestRandomWords",
      "outputs": [],
      "stateMutability": "nonpayable",
      "type": "function"
    },
    {
      "inputs": [
        {
          "internalType": "uint256",
          "name": "turn",
          "type": "uint256"
        }
      ],
      "name": "resolve",
      "outputs": [],
      "stateMutability": "nonpayable",
      "type": "function"
    },
    {
      "inputs": [
        {
          "internalType": "address",
          "name": "player",
          "type": "address"
        }
      ],
      "name": "rest",
      "outputs": [],
      "stateMutability": "nonpayable",
      "type": "function"
    },
    {
      "inputs": [
        {
          "internalType": "uint256",
          "name": "turn",
          "type": "uint256"
        },
        {
          "internalType": "bytes32",
          "name": "nonce",
          "type": "bytes32"
        },
        {
          "internalType": "bytes",
          "name": "data",
          "type": "bytes"
        }
      ],
      "name": "reveal",
      "outputs": [],
      "stateMutability": "nonpayable",
      "type": "function"
    },
    {
      "inputs": [
        {
          "internalType": "uint256",
          "name": "turn",
          "type": "uint256"
        }
      ],
      "name": "rollDice",
      "outputs": [],
      "stateMutability": "nonpayable",
      "type": "function"
    },
    {
      "inputs": [
        {
          "internalType": "address",
          "name": "owner",
          "type": "address"
        }
      ],
      "name": "setOwner",
      "outputs": [],
      "stateMutability": "nonpayable",
      "type": "function"
    },
    {
      "inputs": [
        {
          "internalType": "uint256",
          "name": "x",
          "type": "uint256"
        },
        {
          "internalType": "uint256",
          "name": "y",
          "type": "uint256"
        },
        {
          "internalType": "address",
          "name": "addr",
          "type": "address"
        }
      ],
      "name": "setPlayingField",
      "outputs": [],
      "stateMutability": "nonpayable",
      "type": "function"
    },
    {
      "inputs": [
        {
          "internalType": "uint64",
          "name": "subId",
          "type": "uint64"
        }
      ],
      "name": "setSubscriptionId",
      "outputs": [],
      "stateMutability": "nonpayable",
      "type": "function"
    },
    {
      "inputs": [
        {
          "internalType": "address",
          "name": "",
          "type": "address"
        }
      ],
      "name": "spoils",
      "outputs": [
        {
          "internalType": "uint256",
          "name": "",
          "type": "uint256"
        }
      ],
      "stateMutability": "view",
      "type": "function"
    },
    {
      "inputs": [],
      "name": "start",
      "outputs": [],
      "stateMutability": "nonpayable",
      "type": "function"
    },
    {
      "inputs": [
        {
          "internalType": "uint256",
          "name": "turn",
          "type": "uint256"
        },
        {
          "internalType": "bytes32",
          "name": "commitment",
          "type": "bytes32"
        }
      ],
      "name": "submit",
      "outputs": [],
      "stateMutability": "nonpayable",
      "type": "function"
    },
    {
      "inputs": [],
      "name": "vrf_owner",
      "outputs": [
        {
          "internalType": "address",
          "name": "",
          "type": "address"
        }
      ],
      "stateMutability": "view",
      "type": "function"
    },
    {
      "inputs": [],
      "name": "vrf_requestId",
      "outputs": [
        {
          "internalType": "uint256",
          "name": "",
          "type": "uint256"
        }
      ],
      "stateMutability": "view",
      "type": "function"
    },
    {
      "inputs": [],
      "name": "vrf_subscriptionId",
      "outputs": [
        {
          "internalType": "uint64",
          "name": "",
          "type": "uint64"
        }
      ],
      "stateMutability": "view",
      "type": "function"
    },
    {
      "inputs": [],
      "name": "winnerAllianceId",
      "outputs": [
        {
          "internalType": "uint256",
          "name": "",
          "type": "uint256"
        }
      ],
      "stateMutability": "view",
      "type": "function"
    },
    {
      "inputs": [],
      "name": "winnerPlayer",
      "outputs": [
        {
          "internalType": "address",
          "name": "",
          "type": "address"
        }
      ],
      "stateMutability": "view",
      "type": "function"
    },
    {
      "inputs": [],
      "name": "winningTeamSpoils",
      "outputs": [
        {
          "internalType": "uint256",
          "name": "",
          "type": "uint256"
        }
      ],
      "stateMutability": "view",
      "type": "function"
    },
    {
      "inputs": [],
      "name": "withdrawWinnerAlliance",
      "outputs": [],
      "stateMutability": "nonpayable",
      "type": "function"
    },
    {
      "inputs": [],
      "name": "withdrawWinnerPlayer",
      "outputs": [],
      "stateMutability": "nonpayable",
      "type": "function"
    }
  ],
  "bytecode": {
    "object": "0x61016060405262003e53608081380391826200001b8162000264565b9384928339810103126200025f576200003481620002a0565b602062000043818401620002a0565b6040840151909390916001600160401b039182841684036200025f5760600151928460805260009384600a5560019586600d558560135585601455610100976003895261012097622625a08952610140976003895260095490620000bf620000b5620000af84620002b5565b62000264565b92808452620002b5565b8883019290601f190136843751918983116200024b576801000000000000000083116200024b576017548360175580841062000220575b509060178152888120905b838110620002055760646009556001600160a01b0380881660a090815290871660c05260e0899052601580546001600160a01b0319163390811790915560168054600160a01b600160e01b0319168c841b600160a01b600160e01b0316179081905560408051928352921c8d16818d01528f918f918f917fce56c1ad6522eaacd10b6f26efb78d6ec42b413b8a3fef91a67f0838f224fbb991a160405191613b859384620002ce853960805184612020015260a0518481816106870152610ace015260c05184505060e0518481816105de0152610a2501525183818161060c0152610a530152518281816106390152610a800152518181816106600152610aa70152f35b82516001600160a01b03168282015591890191840162000101565b6017835284848b852092830192015b8281106200023f575050620000f6565b8481550185906200022f565b634e487b7160e01b82526041600452602482fd5b600080fd5b6040519190601f01601f191682016001600160401b038111838210176200028a57604052565b634e487b7160e01b600052604160045260246000fd5b51906001600160a01b03821682036200025f57565b6001600160401b0381116200028a5760051b6020019056fe6080604052600436101561001257600080fd5b60003560e01c8062049e351461259f578063043b19041461257557806313af403514612532578063150b7a02146124dc578063167ed4a3146124be5780631e0b2f00146121345780631f78d033146120fa5780631fe543e314611faa578063250a2b0d14611f8c578063258f3a3e14611f6e57806328522ec814611f3a5780632e5f3a5c14611bd05780632ecea78814611b195780633601318914611afb57806342d0abd7146118d95780634c2412a2146118bd5780634e6a0dd81461189f5780634f896d4f14611409578063510d178f146113eb578063594d157a146113cd578063654b878d146113a4578063659c046114611386578063700bf79b146113615780637a784cb41461115457806388de624714610c89578063930ac30814610c3c57806393fb6f5a14610c01578063967bb66014610be35780639aa5729e14610b61578063ac98deee14610b04578063acfff377146109b1578063be9a65551461086f578063c592467514610826578063c64e87b314610808578063d6065aa114610719578063deb61286146106fb578063e0c862891461058f578063e1c7392a1461058f578063e2eb41ff146104ae578063e6e9d27d14610485578063e7bfbaed146102a6578063ea7b4f77146102435763f7eacb7f146101f457600080fd5b3461023e57610202366133db565b9060005260046020526040600020805482101561023e5760209161022591613536565b905460405160039290921b1c6001600160a01b03168152f35b600080fd5b3461023e57602036600319011261023e576004356001600160401b038116810361023e576015546001600160a01b0316330361023e576016805467ffffffffffffffff60a01b191660a09290921b67ffffffffffffffff60a01b16919091179055005b3461023e57600036600319011261023e5760085480156104315780600052602090600482526040600020604051808285829454938481520190600052856000209260005b8782821061041257505050610301925003826133a3565b60009160005b825181101561034257336001600160a01b036103238386613814565b511614610339575b61033490613703565b610307565b6001935061032b565b84828515610400576000526003815260046040600020015433600052600282526003604060002001549060125482600019048111831515166103ea57600061038f81938293879602613694565b60405190335af161039e613712565b50156103a657005b6064906040519062461bcd60e51b82526004820152601960248201527f4661696c656420746f2077697468647261772073706f696c73000000000000006044820152fd5b634e487b7160e01b600052601160045260246000fd5b60405163ae5b73e960e01b8152600490fd5b85546001600160a01b03168452600195860195879550930192016102ea565b60405162461bcd60e51b815260206004820152602660248201527f4f6e6c792063616c6c207468697320696620616e20616c6c69616e636520686160448201526539903bb7b71760d11b6064820152608490fd5b3461023e57600036600319011261023e576015546040516001600160a01b039091168152602090f35b3461023e57602036600319011261023e5760206001600160a01b03806104d26132c2565b1660005260028252604060002061058282825416926001830154169160028101546003820154600483015460058401546006850154600786015491600887015493600988015495600a8901549760ff600c61052f600b8d0161342b565b9b0154169b6040519e8f9e8f908152015260408d015260608c015260808b015260a08a015260c089015260e08801526101008701526101208601526101408501526101a0806101608601528401906134d1565b9015156101808301520390f35b3461023e57600036600319011261023e576015546001600160a01b03908116330361023e57602060009160a46001600160401b0360165460a01c1660405194859384926305d3b1d360e41b84527f00000000000000000000000000000000000000000000000000000000000000006004850152602484015261ffff7f000000000000000000000000000000000000000000000000000000000000000016604484015263ffffffff807f00000000000000000000000000000000000000000000000000000000000000001660648501527f00000000000000000000000000000000000000000000000000000000000000001660848401527f0000000000000000000000000000000000000000000000000000000000000000165af19081156106ef576000916106be575b50600c55005b90506020813d82116106e7575b816106d8602093836133a3565b8101031261023e5751816106b8565b3d91506106cb565b6040513d6000823e3d90fd5b3461023e57600036600319011261023e576020600e54604051908152f35b3461023e57600036600319011261023e576016546001600160a01b03908116338190036107f657600080828193825260066020526040822054604051915af1610760613712565b50156107b157806000916016541682526006602052816040812055601654168082526040822054604051917f5b1bab3a6531eeadcb3036c982f99142798288be17701177966b9b0801fd95248484a3f35b60405162461bcd60e51b815260206004820152601b60248201527f4661696c656420746f2077697468647261772077696e6e696e677300000000006044820152606490fd5b604051633793127f60e01b8152600490fd5b3461023e57600036600319011261023e576020600854604051908152f35b3461023e57602036600319011261023e5760043560175481101561023e576017600052600080516020613b3083398151915201546040516001600160a01b039091168152602090f35b3461023e57600036600319011261023e5761088c600e541561354e565b6001601054111561097f57600b54801561093a576001600e5542600f556040805160638306927546bf5bb0385045767e0f0ef2e7aa1e517e454637d1dd604b1b90049181016001600160401b03811182821017610924578391602091604052838152015260005560015560017fd0f58b2454641533a9db99057388102d8f29c0da5a5c25df4fe270a6622cbf4a6020604051428152a2005b634e487b7160e01b600052604160045260246000fd5b60405162461bcd60e51b815260206004820152601d60248201527f4e6565642072616e646f6d6e65737320666f72206a61696c2063656c6c0000006044820152606490fd5b60405162461bcd60e51b815260206004820152600a6024820152694e6f20706c617965727360b01b6044820152606490fd5b3461023e57602036600319011261023e576109d1600e546004351461369e565b600f5461fd2081018091116103ea5742111561023e576015546001600160a01b03908116330361023e57602060009160a46001600160401b0360165460a01c1660405194859384926305d3b1d360e41b84527f00000000000000000000000000000000000000000000000000000000000000006004850152602484015261ffff7f000000000000000000000000000000000000000000000000000000000000000016604484015263ffffffff807f00000000000000000000000000000000000000000000000000000000000000001660648501527f00000000000000000000000000000000000000000000000000000000000000001660848401527f0000000000000000000000000000000000000000000000000000000000000000165af19081156106ef576000916106be5750600c55005b3461023e57606036600319011261023e576044356001600160a01b0381169081900361023e57600435600052600760205260406000206024356000526020526040600020906001600160601b0360a01b8254161790556000604051f35b3461023e57602036600319011261023e576004356000526003602052604060002060018060a01b03815416610bdf6001830154926002810154906003810154610bb160056004840154930161342b565b926040519687968752602087015260408601526060850152608084015260c060a084015260c08301906134d1565b0390f35b3461023e57600036600319011261023e576020601454604051908152f35b3461023e57610c0f366133db565b906000526007602052604060002090600052602052602060018060a01b0360406000205416604051908152f35b3461023e57602036600319011261023e57610c556132c2565b610c60303314613742565b60018060a01b031660005260026020526006604060002001805490600282018092116103ea5755005b604036600319011261023e57610c9d6132d8565b610ca9600e541561354e565b336000526006602052610cc16040600020541561358c565b33600090815260026020526040902054610ce4906001600160a01b03161561358c565b341561111f576040516370a0823160e01b81523360048201526001600160a01b039190911690602081602481855afa9081156106ef576000916110ed575b50156110a85760145460135460405192610d3b84613351565b33845260208401526004356040840152346060840152426080840152600060a08401526103e860c0840152600a60e084015281610100840152806101208401526000610140840152604051610d8f81613336565b60008152610160840152600061018084015260005260076020526040600020906000526020526040600020336001600160601b0360a01b82541617905533600052600660205234604060002055600260205260406000209060018060a01b038151166001600160601b0360a01b8354161782556001820160018060a01b036020830151166001600160601b0360a01b82541617905560408101516002830155606081015160038301556080810151600483015560a0810151600583015560c0810151600683015560e0810151600783015561010081015160088301556101208101516009830155610140810151600a830155600b8201916101608201519283516001600160401b03811161092457610eb181610eab84546133f1565b846135fb565b6020601f8211600114611039579080600c949392610180969760009261102e575b50508160011b916000199060031b1c19161790555b01910151151560ff80198354169116179055601854600160401b811015610924576001810180601855811015611018577fb13d2d76d1f4b7be834882e410b3e3a8afaf69f83600ae24db354391d2378d2e0180546001600160a01b03191633179055601180546001810190811061100357815560105460018101809111611003576010556014546002810180911161100357600954908115610fed57068060145515600014610fe4576013549060018201809211610fd057505b6013556000604051337f7073afa60b48e833a1a66ebb442bc8e0d19e9f3cc05f34bdcd1da22c8d87f2758383a2f35b634e487b7160e01b60005260045260246000fd5b50601354610fa1565b634e487b7160e01b600052601260045260246000fd5b50634e487b7160e01b60005260045260246000fd5b634e487b7160e01b600052603260045260246000fd5b015190508780610ed2565b601f198216958360005260206000209660005b8181106110905750966001928492600c979695610180999a10611077575b505050811b019055610ee7565b015160001960f88460031b161c1916905587808061106a565b8383015189556001909801976020938401930161104c565b60405162461bcd60e51b815260206004820152601e60248201527f596f7520646f6e74206f776e2074686973204e465420796f75206c69617200006044820152606490fd5b90506020813d602011611117575b81611108602093836133a3565b8101031261023e575182610d22565b3d91506110fb565b60405162461bcd60e51b815260206004820152600d60248201526c0a6cadcc840e6dedaca40cae8d609b1b6044820152606490fd5b3461023e5760208060031936011261023e5761116e6132c2565b611179303314613742565b60018060a01b03809116918260005260029283825260056040600020015492831561132a578160005284835260056040600020015460005260058352806040600020541682146112e557816000528483526000600560408220015560005b8460005260038085528660406000200154821015611258579083836112189360048852611208846040600020613536565b9054911b1c161461121d57613703565b6111d7565b806000526004855260406000208054600082558061123d575b5050613703565b6112519160005286600020908101906135e4565b8780611236565b5050509282600052600382528060406000200180549060001982019182116103ea5755836000528152600380604060002001549183600052526112a460046040600020019182546136f6565b905560115491600183018093116103ea57600092601155604051917fdf384c87ebac82224114b854a76b0254e7c41923372b283c30b7e286c15b24278484a3f35b60405162461bcd60e51b815260048101849052601a60248201527f41646d696e2063616e6f74206c6561766520616c6c69616e63650000000000006044820152606490fd5b60405162461bcd60e51b815260048101849052600f60248201526e4e6f7420696e20616c6c69616e636560881b6044820152606490fd5b3461023e57600036600319011261023e57604060005460015482519182526020820152f35b3461023e57600036600319011261023e576020601154604051908152f35b3461023e57600036600319011261023e576016546040516001600160a01b039091168152602090f35b3461023e57600036600319011261023e576020600954604051908152f35b3461023e57600036600319011261023e576020601254604051908152f35b3461023e5760208060031936011261023e5760043561142b600e54821461369e565b600b80541561186557600f5461fd2081018091116103ea5742111561023e576005918281061561184e575b60005b601054811015611807576018548110156110185760018060a01b0380827fb13d2d76d1f4b7be834882e410b3e3a8afaf69f83600ae24db354391d2378d2e01541660005260029081875260406000209160ff600c840154166117fb57600a808401908154156000146115965750506001830191808354168185541692850192835490823b1561023e57600092606484926040519586938492632142170760e11b84526004840152602496308885015260448401525af180156106ef57611567575b50509183918361155d94611562979654169254169054917f742d48127c1cf535ed04aaad37be6c132a0630db70c07cd4b0038d786f8770816000604051a4613ab4565b613703565b611459565b6001600160401b03821161158257506040528161155d61151a565b634e487b7160e01b60009081526041600452fd5b9092949391506115a8878301546133f1565b156117eb5786820194604051600087546115c1816133f1565b906001908181169081156117d35750600114611799575b5050816000928392039082305af16115ee613712565b9015611708575b50600883015460099081548091119182156116fb575b5050611658575b505050600090818461162761156296546133f1565b601f9081811161163b575b50505555613703565b611651918385528c852091018b1c8101906135e4565b8a80611632565b9092919460069384870192835495600919968781019081116103ea576000136116c5575083549586019586116103ea57611562976000968795555416307f57a0014975d3d94187cfae6b9e072c00fa38dffc9cf70416b4ca72f1ce0f79a285604051a45b94829350611612565b600096508694506116f69250889161156299541685528c5260408420546116ef6012918254613687565b9055613ab4565b6116bc565b8501541190508b8061160b565b60038401805466b1a2bc2ec4ffff1991908281019081116103ea576000136117885780549182019182116103ea578c928a927f6c50784bc53c347817a1031b5f54b0d3222f06321cc5999eb5c6fb04cff9964592556006858854169485600052528d61177e6040519282849384528301906134d1565b0390a35b8a6115f5565b50505061179483613ab4565b611782565b909150886000528c600020908d6000925b8484106117c15750505090820190508160006115d8565b8054868501529201918e9082016117aa565b60ff19168552505080151502820190508160006115d8565b50611562935061155d9150613ab4565b50505061156290613703565b8460008455600e5490600182018092116103ea577fd0f58b2454641533a9db99057388102d8f29c0da5a5c25df4fe270a6622cbf4a9082600e5542600f55604051428152a2005b60095460011981019081116103ea57600955611456565b60405162461bcd60e51b8152600481018490526012602482015271149bdb1b081d1a1948191a5948199a5c9cdd60721b6044820152606490fd5b3461023e57600036600319011261023e576020600c54604051908152f35b3461023e57600036600319011261023e57602060405160648152f35b3461023e57606036600319011261023e576024356004356001600160401b0360443581811161023e576119109036906004016132ee565b929093611920600e54831461369e565b600f5461fd2081018082116103ea5742111561023e576201fa4081018091116103ea5742101561023e573360005260209160028352600a6040600020015490604051848101918252836040820152868860608301376119926060828981016000838201520360408101845201826133a3565b51902003611ac8573360005260028252600b604060002001928411610924576119c5846119bf85546133f1565b856135fb565b60009284601f8111600114611a41577f165c470e18949925466a78694c0e678b21f6d0e0e6f412abaaa79671e03c956194600091611a36575b508560011b906000198760031b1c19161790555b611a31600e5495604080519485948552840152339560408401916136d5565b0390a3005b9050860135876119fe565b50601f198516938160005283600020908660005b878110611aae57507f165c470e18949925466a78694c0e678b21f6d0e0e6f412abaaa79671e03c95619610611a94575b5050600185811b019055611a12565b870135600019600388901b60f8161c191690558680611a85565b898301358455600190930192918601918891508601611a55565b60405162461bcd60e51b815260048101839052600b60248201526a4e6f206368656174696e6760a81b6044820152606490fd5b3461023e57600036600319011261023e576020600b54604051908152f35b3461023e57604036600319011261023e57602435600e548015611b9d57611b43906004351461369e565b600f5461fd2081018091116103ea57421161023e5733600052600260205280600a60406000200155600e54906040519081527f39ca3aa3088e8ed2d040f365eb6c42bf4be6a5168f14a80fc94ce4b92eb6b9ab60203392a3005b60405162461bcd60e51b815260206004820152600b60248201526a139bdd081cdd185c9d195960aa1b6044820152606490fd5b3461023e5760a036600319011261023e57611be96132c2565b6024908135906044359260ff841680940361023e57611c09303314613742565b600e54936040519460209586810191825285604082015260408152611c2d81613388565b519020906040519182528582015260643560408201526084356060820152600080528460006080600193845afa156106ef5760008051858252600587526040909120546001600160a01b03949190851690851603611f0057838116948560005260028752806005604060002001558060005260038752604060002094604051611cb58161331b565b81875416815284870154898201526002870154906040810191825260a0611cf4600560038b01549a606085019b8c52600481015460808601520161342b565b91015251955160001996878201918211611ea9571015611ebe5781600052600388526002604060002001805490858201809211611ea9575586600052600288526003604060002001548260005260038952611d586004604060002001918254613687565b9055600082815260048952604090205415611e305750611d849250600052600486526040600020613640565b601154918201918211611e1c5750600092611de582600293601155604051611dab81613388565b602381527f6a6f696e416c6c69616e636528292e2e2e61637469766520616c6c69616e636584820152620399d160ed1b60408201526137bc565b82845252600560408320015490604051917f5cc9a017b8fbc6b51234ce89e9cdbfeee14757e1909f7237f99ca1c35233e3e18484a3f35b634e487b7160e01b60009081526011600452fd5b915060405190611e3f82613336565b868252600052600487526040600020908154848355808510611e8c575b50906000528660002060005b848110611e79575050505050611d84565b8251841682820155918801918401611e68565b611ea39083600052858a60002091820191016135e4565b88611e5c565b86634e487b7160e01b60005260116004526000fd5b606485896040519162461bcd60e51b83528160048401528201527f43616e6e6f7420657863656564206d6178206d656d6265727320636f756e742e6044820152fd5b60405162461bcd60e51b815260048101879052601381850152722737ba1039b4b3b732b210313c9030b236b4b760691b6044820152606490fd5b3461023e57602036600319011261023e576004356000526005602052602060018060a01b0360406000205416604051908152f35b3461023e57600036600319011261023e576020601354604051908152f35b3461023e57600036600319011261023e576020601054604051908152f35b3461023e57604036600319011261023e576024356001600160401b03811161023e573660238201121561023e57806004013590611fe6826133c4565b611ff360405191826133a3565b8281526020918282016024819560051b8301019136831161023e576024859101915b8383106120ea5750507f00000000000000000000000000000000000000000000000000000000000000006001600160a01b0316915050338190036120cc5750600435600c540361023e5780511561101857908251600b556000600c5560405191818301908284525180915260408301939160005b8281106120b8577fefb16d61046900da527008568620fb9f8420e2f5ed4de3bfbded5035c9362b0e85870386a1005b835186529481019492810192600101612089565b6044906040519063073e64fd60e21b82523360048301526024820152fd5b8235815291810191859101612015565b3461023e57602036600319011261023e576001600160a01b0361211b6132c2565b1660005260066020526020604060002054604051908152f35b3461023e57606036600319011261023e5761214d6132c2565b6044356001600160401b03811161023e5761216c9036906004016132ee565b9091612179303314613742565b6001600160a01b03811660009081526002602052604090206005015461248357600d80546001600160a01b0383166000818152600260208181526040808420600581810188905596855295825280842080546001600160a01b0319168617905595549390925290526003909101549151916121f38361331b565b6001600160a01b0384168352602083018290526001604084015260243560608401526080830152612223846135c9565b61223060405191826133a3565b848152368587011161023e578486602083013760006020868301015260a083015280600052600460205260406000205415156000146123f45750600d546000526004602052612283826040600020613640565b600d54600052600360205260a060056040600020600180841b038451166001600160601b03841b82541617815560208401516001820155604084015160028201556060840151600382015560808401516004820155019101518051906001600160401b038211610924578190612303826122fd86546133f1565b866135fb565b602090601f831160011461238e57600092612383575b50508160011b916000199060031b1c19161790555b600d5492600184018094116103ea577f30d8074cef5dc6b57d4a0194c5203e5a89da09073eb2188198dd0ba855568ab39184600d55611a316040519283926020845260018060a01b03169560208401916136d5565b015190508680612319565b6000858152602081209350601f198516905b8181106123dc57509084600195949392106123c3575b505050811b01905561232e565b015160001960f88460031b161c191690558680806123b6565b929360206001819287860151815501950193016123a0565b6040519061240182613336565b60018060a01b0384168252600052600460205260406000209081546001835580600110612464575b509060005260206000209060005b6001811061244757505050612283565b81516001600160a01b031681840155602090910190600101612437565b61247d90836000526001602060002091820191016135e4565b86612429565b60405162461bcd60e51b8152602060048201526013602482015272416c726561647920696e20616c6c69616e636560681b6044820152606490fd5b3461023e57600036600319011261023e576020600f54604051908152f35b3461023e57608036600319011261023e576124f56132c2565b506124fe6132d8565b506064356001600160401b03811161023e5761251e9036906004016132ee565b5050604051630a85bd0160e11b8152602090f35b3461023e57602036600319011261023e5761254b6132c2565b601554906001600160a01b0390818316330361023e576001600160a01b0319909216911617601555005b3461023e57600036600319011261023e5760206001600160401b0360165460a01c16604051908152f35b3461023e57604036600319011261023e576125b86132c2565b6024358060000b810361023e576125d0303314613742565b60018060a01b03821660005260026020526040600020906008820154928391600984015492836001195b8060000b600281136132b35780156132ad578460000b1461262c575b607f8160000b146103ea5760000b6001016125fa565b5050909192939450600082810b136000146132385760028260000b146000146132335761265d908260000b90613787565b806000198101136001166103ea57600019015b809360018360000b1460001461322e5761268e908360000b90613787565b6002819360000b14600014613222575060095410155b1561023e575b82600052600760205260406000208160005260205260018060a01b03604060002054169060005480851480613217575b613024575b509091926126f68360018060a01b03875416613828565b15612fe85750506001600160a01b0382168114612fab5760018060a01b03821660005260026020526040600020908060005260406000209060058301548015908115612f9e575b8115612f8f575b5015612f54576040516001600160a01b038516907ff7c83e292d5087867ec1cf8931c6cfcf01db1b723097293718fa3ecb7284e05290600090a360078201546127936063600b54068092613694565b906001820182116103ea576127ac906007840154613694565b926001840184116103ea5760006127ca6001840160068601546137a3565b13612ccb576127fc6040516127de8161336d565b600c81526b20ba3a30b1b5b2b9103bb7b760a11b60208201526139c0565b600883018054908160088401556009850191825480600986015560018060a01b038554169160005260076020526040600020906000526020526040600020906001600160601b0360a01b8254161790555460005260076020526040600020905460005260205260406000206001600160601b0360a01b815416905561288083613ab4565b82546001600160a01b0390811660009081526006602052604080822054845490931682529020805490916128b391613687565b905582546001600160a01b0316600090815260066020526040812055600581015480612c8f575b50600583015415612b675760058301546000526003602052604060002060018060a01b03845416600052600660205260406000205461291e600483019182546136f6565b90556002810154806000198101116103ea5760001901600282019081556000600586015554600114612b3b575b600160115461298f816040516129608161336d565b601d81527f446566656e6465722077617320696e20616e20616c6c69616e63653a2000000060208201526137bc565b14612afc575b505b60ff600c8201541615612ab9575b60ff600c8401541615612a76575b549154604051936001600160a01b0393841693909116917f57a0014975d3d94187cfae6b9e072c00fa38dffc9cf70416b4ca72f1ce0f79a291600091600191908201858786868ba40194a45b600882018054600090815260076020908152604080832060098701805485529083529281902080546001600160a01b0319166001600160a01b039687161790559454925491548551928352908201529116917f287fd11c6d86edd580b6576271ad3fcfee6c98607768e0b31c0e16886fbccf6a91a2005b60018060a01b0383541660088401546000526007602052604060002060098501546000526020526040600020906001600160601b0360a01b8254161790556129b3565b60018060a01b0381541660088201546000526007602052604060002060098301546000526020526040600020906001600160601b0360a01b8254161790556129a5565b60010154600855612b0b6139fc565b6008547f074d2393b12cfecf24d3f284afdddcbb5edbd1c3b67a3cc1b47ec2bd9bcce7c96000604051a286612995565b60115460001981019081116103ea57601155601054806000198101116103ea576000190160105561294b565b60105460001981818101116103ea578082016010556011549081818101116103ea57818160019301601155600585015460005260036020528282604060002095612bf3604051612bb681613388565b602181527f446566656e64657220776173204e4f5420696e20616e20616c6c69616e63653a6020820152600160fd1b6040820152838601906137bc565b0114612c46575b0114612c07575b50612997565b60010154600855612c166139fc565b6008547f074d2393b12cfecf24d3f284afdddcbb5edbd1c3b67a3cc1b47ec2bd9bcce7c96000604051a286612c01565b828060a01b03855416806001600160601b0360a01b60165416176016557f4e525b03e289e19a7e488e88a5578093a4b1ceae7ae642a869bfd78d68e2eb656000604051a2612bfa565b6000526003602052604060002060018060a01b038454166000526006602052612cc360046040600020549201918254613687565b9055866128da565b60068101546000612cdf60018701836137a3565b13612ef95750612d12604051612cf48161336d565b600c81526b2232b332b73232b9103bb7b760a11b60208201526139c0565b600881015460005260076020526040600020600982015460005260205260406000206001600160601b0360a01b8154169055612d4d81613ab4565b80546001600160a01b039081166000908152600660205260408082205486549093168252902080549091612d8091613687565b905580546001600160a01b0316600090815260066020526040812055600583015480612ebd575b50600581015415612e555760058101546000526003602052604060002060018060a01b038254166000526006602052604060002054612deb600483019182546136f6565b90556002810154806000198101116103ea5760001901600282019081556000600584015554600114612e29575b600160115414612c0757505b612997565b60115460001981019081116103ea57601155601054806000198101116103ea5760001901601055612e18565b601054806000198101116103ea57600019810160105560011901612e245760018060a01b03835416806001600160601b0360a01b60165416176016557f4e525b03e289e19a7e488e88a5578093a4b1ceae7ae642a869bfd78d68e2eb656000604051a2612997565b6000526003602052604060002060018060a01b038254166000526006602052612ef160046040600020549201918254613687565b905586612da7565b612f3490612f2a604051612f0c8161336d565b600c81526b13995a5d1a195c881b1bdcdd60a21b60208201526139c0565b60018601906136f6565b6006820155612f4a6001830160068501546136f6565b6006840155612997565b60405162461bcd60e51b8152602060048201526013602482015272105b1b1a595cc8191bc81b9bdd08199a59da1d606a1b6044820152606490fd5b90506005830154141586612744565b600584015415915061273d565b60405162461bcd60e51b815260206004820152601560248201527421b0b73737ba103334b3b43a103cb7bab939b2b63360591b6044820152606490fd5b600885018054600090815260076020908152604080832060098a0180548552925290912080546001600160a01b031916905591905555506129ff565b60015460405191825260208201527f43cee0c7a8496e9a25178ceda35f83c613e9b2bb5d9f50ef7f4dc808f36c5fcf60403392a260326063600b5406116000146131f95760005b60175481101561312a578061308261309f92613511565b9054600391821b1c6001600160a01b0316806130a4575050613703565b61306b565b60005260026020526040600020906032600683015560005460088301556001546009830155600c820160ff1981541690556130de83613511565b81546001600160a01b039190931b81901b19909216905590546040519116907f7ee5d2b45c252f562662b047aaf9a80e10d8d1508aa39ef004061804c2045f8e90600090a28780611236565b5090919260095461313a816133c4565b9061314860405192836133a3565b808252613157601f19916133c4565b013660208301378051906001600160401b03821161092457600160401b821161092457602090601754836017558084106131d5575b5001601760005260005b8281106131aa575050505b929190856126df565b81516001600160a01b0316600080516020613b30833981519152820155602090910190600101613196565b6131f39084600080516020613b3083398151915291820191016135e4565b8861318c565b9091923360005260026020526132126040600020613ab4565b6131a1565b5060015482146126da565b905060095410156126a4565b61268e565b612670565b600082900b600119036132a857613253908260000b90613787565b600190600082820192831291129080158216911516176103ea575b92600082900b196132a357613287908260000b90613787565b9060019060000b810361329e575b6126aa57600080fd5b613295565b613287565b61326e565b50612616565b505092935050509291926126aa565b600435906001600160a01b038216820361023e57565b602435906001600160a01b038216820361023e57565b9181601f8401121561023e578235916001600160401b03831161023e576020838186019501011161023e57565b60c081019081106001600160401b0382111761092457604052565b602081019081106001600160401b0382111761092457604052565b6101a081019081106001600160401b0382111761092457604052565b604081019081106001600160401b0382111761092457604052565b606081019081106001600160401b0382111761092457604052565b90601f801991011681019081106001600160401b0382111761092457604052565b6001600160401b0381116109245760051b60200190565b604090600319011261023e576004359060243590565b90600182811c92168015613421575b602083101461340b57565b634e487b7160e01b600052602260045260246000fd5b91607f1691613400565b906040519182600082549261343f846133f1565b9081845260019485811690816000146134ae575060011461346b575b5050613469925003836133a3565b565b9093915060005260209081600020936000915b8183106134965750506134699350820101388061345b565b8554888401850152948501948794509183019161347e565b91505061346994506020925060ff191682840152151560051b820101388061345b565b919082519283825260005b8481106134fd575050826000602080949584010152601f8019910116010190565b6020818301810151848301820152016134dc565b601754811015611018576017600052600080516020613b308339815191520190600090565b80548210156110185760005260206000200190600090565b1561355557565b60405162461bcd60e51b815260206004820152600f60248201526e105b1c9958591e481cdd185c9d1959608a1b6044820152606490fd5b1561359357565b60405162461bcd60e51b815260206004820152600e60248201526d105b1c9958591e481a9bda5b995960921b6044820152606490fd5b6001600160401b03811161092457601f01601f191660200190565b8181106135ef575050565b600081556001016135e4565b9190601f811161360a57505050565b613469926000526020600020906020601f840160051c83019310613636575b601f0160051c01906135e4565b9091508190613629565b90815491600160401b831015610924578261366391600161346995018155613536565b90919082549060031b9160018060a01b039283811b93849216901b16911916179055565b919082018092116103ea57565b8115610fed570490565b156136a557565b60405162461bcd60e51b81526020600482015260086024820152670a6e8c2d8ca40e8f60c31b6044820152606490fd5b908060209392818452848401376000828201840152601f01601f1916010190565b919082039182116103ea57565b60001981146103ea5760010190565b3d1561373d573d90613723826135c9565b9161373160405193846133a3565b82523d6000602084013e565b606090565b1561374957565b60405162461bcd60e51b815260206004820152601660248201527513db9b1e481d9a58481cdd589b5a5d0bdc995d99585b60521b6044820152606490fd5b919091600083820193841291129080158216911516176103ea57565b818103929160001380158285131691841216176103ea57565b60009190829161380160405180926137ed60208301956309710a9d60e41b87526040602485015260648401906134d1565b90604483015203601f1981018352826133a3565b51906a636f6e736f6c652e6c6f675afa50565b80518210156110185760209160051b010190565b9060018060a01b0380600093168352600260205260409182842091835161384e81613351565b818454168152816001850154166020820152600284015485820152600384015460608201526004840154608082015260ff600c60058601549660a08401978852600687015460c0850152600787015460e08501526008870154966101009788860152600981015496610120978887015286600a83015491610140928389015286866138db600b870161342b565b9561016096878c01520154161515610180809901521697888c526002602052838c209380519861390a8a613351565b808654168a5260018601541660208a0152600285015490890152600384015460608901526004840154608089015260058401549960a089019a8b52600685015460c08a0152600785015460e08a0152600885015490890152600984015490880152600a83015490870152613980600b830161342b565b90860152015416151591015261399557505090565b5190816139a457505050600190565b51908082036139b257505090565b146139bd5750600190565b90565b60008091604051613801816139ee602082019463104c13eb60e21b86526020602484015260448301906134d1565b03601f1981018352826133a3565b600854801561023e57600090815260209060048252604090818120928251808583829754938481520190855283852092855b85828210613a9557505050613a45925003856133a3565b819382945b8151861015613a8b57613a8590613a7f906001600160a01b03613a6d8986613814565b51168652600685528686205490613687565b95613703565b94613a4a565b6012555050505050565b85546001600160a01b031684526001958601958a955093019201613a2e565b6000600682015560005460088201556001546009820155600c8101600160ff1982541617905560018060a01b0390613b0082825416613663613af7600a54613703565b80600a55613511565b5416601754907fbe3aa33bd245135e4e26b223d79d14ea479a47bff09f2b03c53838af1edbb14b6000604051a356fec624b66cc0138b8fabc209247f72d758e1cf3343756d543badbf24212bed8c15a26469706673582212204aae589a0ff4997a49893dcc7c118232e10b7426a80b8666ac1ca81759da75b164736f6c63430008100033",
    "linkReferences": {}
  },
  "methodIdentifiers": {
    "activeAlliances()": "659c0461",
    "activePlayersCount()": "250a2b0d",
    "allianceAdmins(uint256)": "28522ec8",
    "allianceMembers(uint256,uint256)": "f7eacb7f",
    "alliances(uint256)": "9aa5729e",
    "connect(uint256,address)": "88de6247",
    "createAlliance(address,uint256,string)": "1e0b2f00",
    "currentTurn()": "deb61286",
    "currentTurnStartTimestamp()": "167ed4a3",
    "fieldSize()": "594d157a",
    "init()": "e1c7392a",
    "inmates(uint256)": "c5924675",
    "jailCell()": "700bf79b",
    "joinAlliance(address,uint256,uint8,bytes32,bytes32)": "2e5f3a5c",
    "leaveAlliance(address)": "7a784cb4",
    "maxPlayers()": "4c2412a2",
    "move(address,int8)": "00049e35",
    "nextAvailableCol()": "967bb660",
    "nextAvailableRow()": "258f3a3e",
    "onERC721Received(address,address,uint256,bytes)": "150b7a02",
    "players(address)": "e2eb41ff",
    "playingField(uint256,uint256)": "93fb6f5a",
    "randomness()": "36013189",
    "rawFulfillRandomWords(uint256,uint256[])": "1fe543e3",
    "requestRandomWords()": "e0c86289",
    "resolve(uint256)": "4f896d4f",
    "rest(address)": "930ac308",
    "reveal(uint256,bytes32,bytes)": "42d0abd7",
    "rollDice(uint256)": "acfff377",
    "setOwner(address)": "13af4035",
    "setPlayingField(uint256,uint256,address)": "ac98deee",
    "setSubscriptionId(uint64)": "ea7b4f77",
    "spoils(address)": "1f78d033",
    "start()": "be9a6555",
    "submit(uint256,bytes32)": "2ecea788",
    "vrf_owner()": "e6e9d27d",
    "vrf_requestId()": "4e6a0dd8",
    "vrf_subscriptionId()": "043b1904",
    "winnerAllianceId()": "c64e87b3",
    "winnerPlayer()": "654b878d",
    "winningTeamSpoils()": "510d178f",
    "withdrawWinnerAlliance()": "e7bfbaed",
    "withdrawWinnerPlayer()": "d6065aa1"
  },
  "id": 19
}