{
  "abi": [
    {
      "inputs": [
        {
          "internalType": "uint256",
          "name": "updateInterval",
          "type": "uint256"
        },
        {
          "internalType": "uint256",
          "name": "_gameStartTimestamp",
          "type": "uint256"
        },
        {
          "internalType": "address",
          "name": "_game",
          "type": "address"
        }
      ],
      "stateMutability": "nonpayable",
      "type": "constructor"
    },
    {
      "inputs": [
        {
          "internalType": "bytes",
          "name": "",
          "type": "bytes"
        }
      ],
      "name": "checkUpkeep",
      "outputs": [
        {
          "internalType": "bool",
          "name": "upkeepNeeded",
          "type": "bool"
        },
        {
          "internalType": "bytes",
          "name": "performData",
          "type": "bytes"
        }
      ],
      "stateMutability": "view",
      "type": "function"
    },
    {
      "inputs": [],
      "name": "gameStartRemainingTime",
      "outputs": [
        {
          "internalType": "int256",
          "name": "",
          "type": "int256"
        }
      ],
      "stateMutability": "view",
      "type": "function"
    },
    {
      "inputs": [],
      "name": "gameStartTimestamp",
      "outputs": [
        {
          "internalType": "uint256",
          "name": "",
          "type": "uint256"
        }
      ],
      "stateMutability": "view",
      "type": "function"
    },
    {
      "inputs": [],
      "name": "interval",
      "outputs": [
        {
          "internalType": "uint256",
          "name": "",
          "type": "uint256"
        }
      ],
      "stateMutability": "view",
      "type": "function"
    },
    {
      "inputs": [],
      "name": "lastTimestamp",
      "outputs": [
        {
          "internalType": "uint256",
          "name": "",
          "type": "uint256"
        }
      ],
      "stateMutability": "view",
      "type": "function"
    },
    {
      "inputs": [
        {
          "internalType": "bytes",
          "name": "",
          "type": "bytes"
        }
      ],
      "name": "performUpkeep",
      "outputs": [],
      "stateMutability": "nonpayable",
      "type": "function"
    }
  ],
  "bytecode": {
    "object": "0x6080346100bf57601f61069738819003918201601f19168301916001600160401b038311848410176100c4578084926060946040528339810103126100bf578051602082015160409092015191906001600160a01b03831683036100bf5760005542600155806002554281039081116100a95760035560048054610100600160a81b03191660089290921b610100600160a81b03169190911790556040516105bc90816100db8239f35b634e487b7160e01b600052601160045260246000fd5b600080fd5b634e487b7160e01b600052604160045260246000fdfe608060408181526004918236101561001657600080fd5b600092833560e01c91826319d8ac61146104df575081634585e33b146101ca5781635bfe6e00146101ab5781636e04ff0d146100a4575080637ee12f0d146100865763947a36fb1461006757600080fd5b34610082578160031936011261008257602091549051908152f35b5080fd5b50346100825781600319360112610082576020906003549051908152f35b919050346101a457602092836003193601126101a85782359267ffffffffffffffff908185116101a457366023860112156101a4578481013591821161018f57508251601f19946100fc601f84018716880183610541565b828252366024848301011161018b5791869181602486989695018483013701015261012960015442610563565b8354109180519361013985610525565b8085528151958694855282818601528551809386015281955b8387106101725750506060945090601f9185828601015201168101030190f35b8681018201518888016060015295810195879550610152565b8380fd5b604190634e487b7160e01b6000525260246000fd5b8280fd5b80fd5b5050346100825781600319360112610082576020906002549051908152f35b9050346101a4576020908160031936011261018b57803567ffffffffffffffff8082116104db57366023830112156104db57818301359081116104db573691016024011161018b5783835161021e81610525565b5261022b60015442610563565b84541084845161023a81610525565b52156104a15742600155805460ff81161561033e575080548351636f5b094360e11b81526001600160a01b039184908290859082908a9060081c87165af19384156103345786946102ff575b5050600183018093116102ec5790849291815460081c1691823b1561018b57602484928387519586948593634f896d4f60e01b85528401525af180156102df576102cf57505051f35b6102d8906104fb565b6100825751f35b50505051903d90823e3d90fd5b634e487b7160e01b855260118252602485fd5b9080929450813d831161032d575b6103178183610541565b810103126103285751913880610286565b600080fd5b503d61030d565b85513d88823e3d90fd5b909183949351632612095160e11b8152818185818860018060a01b03809860081c165af190811561049757859161046a575b50848284865460081c168689518094819363250a2b0d60e01b83525af192831561046057908692918394610429575b50506103ad42600254610563565b92836003551491821561041e575b50506103c8575b50509051f35b815460081c1690813b156101a457835163be9a655560e01b81529183918391829084905af1801561041457610405575b5061fd20815538806103c2565b61040e906104fb565b386103f8565b83513d84823e3d90fd5b1315905083386103bb565b809294508193503d8311610459575b6104428183610541565b810103126104555784905191388061039f565b8480fd5b503d610438565b87513d88823e3d90fd5b90508181813d8311610490575b6104818183610541565b81010312610455575138610370565b503d610477565b86513d87823e3d90fd5b915162461bcd60e51b81529182015260166024820152752a34b6b29034b73a32b93b30b6103737ba1036b2ba1760511b6044820152606490fd5b8580fd5b8490346100825781600319360112610082576020906001548152f35b67ffffffffffffffff811161050f57604052565b634e487b7160e01b600052604160045260246000fd5b6020810190811067ffffffffffffffff82111761050f57604052565b90601f8019910116810190811067ffffffffffffffff82111761050f57604052565b9190820391821161057057565b634e487b7160e01b600052601160045260246000fdfea2646970667358221220cd523449dfe58f1f02d8f7918613f56c95c5b70cd06a0130e549bf0223ad739164736f6c63430008100033",
    "linkReferences": {}
  },
  "methodIdentifiers": {
    "checkUpkeep(bytes)": "6e04ff0d",
    "gameStartRemainingTime()": "7ee12f0d",
    "gameStartTimestamp()": "5bfe6e00",
    "interval()": "947a36fb",
    "lastTimestamp()": "19d8ac61",
    "performUpkeep(bytes)": "4585e33b"
  },
  "id": 20
}